S012000054696D6572436F756E742E7372656308
S113000045C0000058C0000056C0000054C00000A5
S113001052C0000050C000004EC000004CC00000A0
S11300204AC0000048C0000046C0000044C00000B0
S113003042C0000040C000003EC000003CC00000C0
S11300403AC0000038C0000036C0000034C00000D0
S113005032C0000030C000002EC000002CC00000E0
S11300602AC0000028C0000026C0000024C00000F0
S113007022C0000020C000001EC000001CC0000000
S11300801AC0000018C0000016C0000011241FBED2
S1130090CFEFD0E1DEBFCDBF11E0A0E0B1E0ECE9ED
S11300A0F1E000E00BBF02C007900D92A031B10750
S11300B0D9F702D071C0A4CF80E887BB8AE08FBD96
S11300C089E18EBD10927A001DBC1CBCC0E0EC2FEF
S11300D0F0E0EE0FFF1FE050FF4F2081318140E040
S11300E050E060E070E880E790E018D037BD26BDAE
S11300F086B597B596958795909379008093780007
S1130100CF5FC93008F0C0E02FEF8FE796E12150B0
S113011080409040E1F700C00000D9CF052E97FB46
S113012016F400940FD057FD05D014D007FC02D06C
S113013046F408C050954095309521953F4F4F4F58
S11301405F4F089590958095709561957F4F8F4F7F
S11301509F4F0895A1E21A2EAA1BBB1BFD010DC0DF
S1130160AA1FBB1FEE1FFF1FA217B307E407F50763
S113017020F0A21BB30BE40BF50B661F771F881F3F
S1130180991F1A9469F760957095809590959B01D5
S10F0190AC01BD01CF010895F894FFCF2D
S113019C0B024B029302BA020F037003DB03160427
S9030000FC
