:1000000045C0000058C0000056C0000054C00000A9
:1000100052C0000050C000004EC000004CC00000A4
:100020004AC0000048C0000046C0000044C00000B4
:1000300042C0000040C000003EC000003CC00000C4
:100040003AC0000038C0000036C0000034C00000D4
:1000500032C0000030C000002EC000002CC00000E4
:100060002AC0000028C0000026C0000024C00000F4
:1000700022C0000020C000001EC000001CC0000004
:100080001AC0000018C0000016C0000011241FBED6
:10009000CFEFD0E1DEBFCDBF11E0A0E0B1E0E8E1FD
:1000A000F2E000E00BBF02C007900D92A431B1074F
:1000B000D9F781D0AFC0A4CFE5E6F0E090819160A0
:1000C000908390819D7F908390819460908390E154
:1000D0009A95F1F700C08BBB80E18A95F1F700C0DB
:1000E00080818B7F80830895E5E6F0E090819E7F9C
:1000F000908390819D7F908390819460908390E124
:100100009A95F1F700C08BBB80E18A95F1F700C0AA
:1001100080818B7F80830895CFDF89EF90E0019706
:10012000F1F700C000000895CF93DF93EC0102C007
:10013000F3DF219688818111FBCFDF91CF91089564
:1001400090E4899F600D1124862F8068CDCF08959B
:1001500081E0CADF83EF91E00197F1F700C0000072
:10016000089588E3C1DF83EF91E00197F1F700C0C4
:10017000000088E3B9DF83EF91E00197F1F700C059
:10018000000088E3B1DF83EF91E00197F1F700C051
:1001900000008CE0A9DF83EF91E00197F1F700C048
:1001A000000086E0A1DF83EF91E00197F1F700C046
:1001B0000000CECF0895CF93DF93CDB7DEB763971E
:1001C0000FB6F894DEBF0FBECDBF89E0E0E0F1E0EE
:1001D000DE01119601900D928A95E1F78AE0E9E03F
:1001E000F1E0DE011A9601900D928A95E1F78FEF0A
:1001F0008ABB8FE080936400B4DF60E080E0A0DF22
:10020000CE01019691DF60E081E09ADFCE010A968F
:080210008BDFF3CFF894FFCF60
:100218004C434420544553540041546D6567613143
:040228003238000068
:00000001FF
