S00E00004B65795061642E73726563D8
S113000045C000004BC0000049C0000047C00000CC
S113001045C0000043C0000041C000003FC00000D4
S11300203DC000003BC0000039C0000037C00000E4
S113003035C0000033C0000031C000002FC00000F4
S11300402DC000002BC0000029C0000027C0000004
S113005025C0000023C0000021C000001FC0000014
S11300601DC000001BC0000019C0000017C0000024
S113007015C0000013C0000011C000000FC0000034
S11300800DC000000BC0000009C0000011241FBEF9
S1130090CFEFD0E1DEBFCDBF87D099C0B1CF88EF1D
S11300A08ABB87E08BBB089588E08BBB83E397E032
S11300B00197F1F789B38770813009F45DC089B382
S11300C08770823009F45AC089B38770843009F488
S11300D057C08FEF97E40197F1F700C0000080E16B
S11300E08BBB83E397E00197F1F789B38770813085
S11300F009F448C089B38770823009F445C089B3D4
S11301008770843009F442C08FEF97E40197F1F7C8
S113011000C0000080E28BBB83E397E00197F1F716
S113012089B387708130A1F189B38770823091F1EE
S113013089B38770843081F18FEF97E40197F1F7E9
S113014000C0000080E48BBB83E397E00197F1F7E4
S113015089B38770813011F189B38770823001F1DE
S113016089B387708430F1F08FEF97E40197F1F74A
S113017000C0000080E0089581E3089582E30895BB
S113018083E3089584E3089585E3089586E3089559
S113019087E3089588E3089589E308958AE208953A
S11301A080E3089583E208958FEF84BB78DF7CDFDA
S11301B0813319F481E085BBFACF823319F482E0EC
S11301C085BBF5CF833399F783E085BBF0CFF894F3
S10501D0FFCF5B
S9030000FC
