:1000000045C0000060C000005EC000005CC0000091
:100010005AC0000091C00000A3C00000B5C000009D
:10002000C7C0000050C000004EC000004CC000001F
:100030004AC0000048C0000046C0000044C00000A4
:1000400042C0000040C000003EC000003CC00000B4
:100050003AC0000038C0000036C0000034C00000C4
:1000600032C0000030C000002EC000002CC00000D4
:100070002AC0000028C0000026C0000024C00000E4
:1000800022C0000020C000001EC0000011241FBEBE
:10009000CFEFD0E1DEBFCDBF11E0A0E0B1E0ECEDED
:1000A000F1E000E00BBF02C007900D92A431B10750
:1000B000D9F721E0A4E1B1E001C01D92A631B20759
:1000C000E1F71BD089C09CCF5D9BFECF8CB98BB173
:1000D00080628BB908950F931F93CF938C01C0E07A
:1000E00002C0CF5FF1DFF801EC0FF11D80818111BB
:1000F000F8CFCF911F910F91089582E082B91BB87C
:1001000088E18AB986E0809395001092900083E0A0
:1001100089B98FEF8ABF80EF89BF88BF78948091BB
:1001200015018130E1F780E091E0D5DF8091140185
:10013000CBDF10921501F3CF1F920F920FB60F92E3
:1001400011248F93F89480E38093140181E08093CD
:10015000150178948F910F900FBE0F901F901895F6
:100160001F920F920FB60F9211248F93F89481E390
:100170008093140181E08093150178948F910F9002
:100180000FBE0F901F9018951F920F920FB60F92EF
:1001900011248F93F89482E38093140181E080937B
:1001A000150178948F910F900FBE0F901F901895A6
:1001B0001F920F920FB60F9211248F93F89483E33E
:1001C0008093140181E08093150178948F910F90B2
:0C01D0000FBE0F901F901895F894FFCF01
:1001DC000A0D20496E70757420537769746368201A
:0401EC003A200000B5
:00000001FF
