S014000054696D65724C4544467265652E73726563B8
S113000045C0000053C0000051C000004FC00000B4
S11300104DC000004BC0000049C0000047C00000B4
S113002045C0000043C0000041C000003FC00000C4
S11300303DC000003BC0000039C0000037C00000D4
S113004046C0000033C0000031C000002FC00000D3
S11300502DC000002BC0000029C0000027C00000F4
S113006025C0000023C0000021C000001FC0000004
S11300701DC000001BC0000019C0000017C0000014
S113008015C0000013C0000011C0000011241FBEE1
S1130090CFEFD0E1DEBFCDBF21E0A0E0B1E001C0F1
S11300A01D92A330B207E1F702D040C0A9CF8FE080
S11300B084BB86E083BF80E782BF81E087BF86B7C9
S11300C0816086BF78948091020185BBFCCF1F922A
S11300D00F920FB60F9211242F938F939F93F8943E
S11300E080E782BF80910001909101010196909375
S11300F00101809300018039914079F480910201DB
S11301008F5F8093020180910201803110F0109280
S11301100201109201011092000178949F918F9135
S11301202F910F900FBE0F901F901895F894FFCF4A
S9030000FC
