S01A00004750494F5F464E445F4C45445F43484147452E73726563B9
S113000045C0000058C0000056C0000054C00000A5
S113001052C0000050C000004EC000004CC00000A0
S11300204AC0000048C0000046C0000044C00000B0
S113003042C0000040C000003EC000003CC00000C0
S11300403AC0000038C0000036C0000034C00000D0
S113005032C0000030C000002EC000002CC00000E0
S11300602AC0000028C0000026C0000024C00000F0
S113007022C0000020C000001EC000001CC0000000
S11300801AC0000018C0000016C0000011241FBED2
S1130090CFEFD0E1DEBFCDBF11E0A0E0B1E0E4E6F8
S11300A0F1E000E00BBF02C007900D92A231B1074E
S11300B0D9F71BD055C0A4CF823059F018F4813041
S11300C089F004C0843041F0883049F080E090E049
S11300D0089582E090E008958FEF9FEF08958EEFEA
S11300E09FEF089581E090E00895CF93DF93CDB71B
S11300F0DEB762970FB6F894DEBF0FBECDBF82E1C4
S1130100E0E0F1E0DE01119601900D928A95E1F7AD
S11301108FEF8ABB12B800E010E081B182958F7036
S113012091B192959F70E1F7882319F0C5DF080F0C
S1130130191F0031110510F00FE010E0E1E0F0E0CC
S1130140EC0FFD1FE00FF11F80818BBB2FEA84E4CD
S113015092E0215080409040E1F700C00000DDCFE4
S1070160F894FFCF3D
S11301643F065B4F666D7C077F67777C395E7971E8
S10501740880FD
S9030000FC
